{
  "contractName": "Hodl",
  "abi": [
    {
      "inputs": [],
      "payable": false,
      "stateMutability": "nonpayable",
      "type": "constructor",
      "signature": "constructor"
    },
    {
      "constant": true,
      "inputs": [],
      "name": "contract_balance",
      "outputs": [
        {
          "name": "",
          "type": "uint256"
        }
      ],
      "payable": false,
      "stateMutability": "view",
      "type": "function",
      "signature": "0x057440d3"
    },
    {
      "constant": false,
      "inputs": [
        {
          "name": "_freezeTime",
          "type": "uint256"
        }
      ],
      "name": "deposit",
      "outputs": [],
      "payable": true,
      "stateMutability": "payable",
      "type": "function",
      "signature": "0xb6b55f25"
    },
    {
      "constant": false,
      "inputs": [],
      "name": "withdraw",
      "outputs": [],
      "payable": false,
      "stateMutability": "nonpayable",
      "type": "function",
      "signature": "0x3ccfd60b"
    },
    {
      "constant": true,
      "inputs": [],
      "name": "getDepositAmt",
      "outputs": [
        {
          "name": "",
          "type": "uint256"
        }
      ],
      "payable": false,
      "stateMutability": "view",
      "type": "function",
      "signature": "0xdb68bf3f"
    },
    {
      "constant": true,
      "inputs": [],
      "name": "getHodlTime",
      "outputs": [
        {
          "name": "",
          "type": "uint256"
        }
      ],
      "payable": false,
      "stateMutability": "view",
      "type": "function",
      "signature": "0x9462cafb"
    }
  ],
  "bytecode": "0x608060405234801561001057600080fd5b5033600260006101000a81548173ffffffffffffffffffffffffffffffffffffffff021916908373ffffffffffffffffffffffffffffffffffffffff16021790555061079a806100616000396000f3fe60806040526004361061006d576000357c0100000000000000000000000000000000000000000000000000000000900463ffffffff168063057440d3146100725780633ccfd60b1461009d5780639462cafb146100b4578063b6b55f25146100df578063db68bf3f1461010d575b600080fd5b34801561007e57600080fd5b50610087610138565b6040518082815260200191505060405180910390f35b3480156100a957600080fd5b506100b261021c565b005b3480156100c057600080fd5b506100c9610459565b6040518082815260200191505060405180910390f35b61010b600480360360208110156100f557600080fd5b81019080803590602001909291905050506104a0565b005b34801561011957600080fd5b50610122610728565b6040518082815260200191505060405180910390f35b6000600260009054906101000a900473ffffffffffffffffffffffffffffffffffffffff1673ffffffffffffffffffffffffffffffffffffffff163373ffffffffffffffffffffffffffffffffffffffff161415156101ff576040517f08c379a00000000000000000000000000000000000000000000000000000000081526004018080602001828103825260158152602001807f596f7520617265206e6f7420746865206f776e6572000000000000000000000081525060200191505060405180910390fd5b3073ffffffffffffffffffffffffffffffffffffffff1631905090565b60008060003373ffffffffffffffffffffffffffffffffffffffff1673ffffffffffffffffffffffffffffffffffffffff168152602001908152602001600020541115156102d2576040517f08c379a00000000000000000000000000000000000000000000000000000000081526004018080602001828103825260138152602001807f596f752068617665206e6f2062616c616e63650000000000000000000000000081525060200191505060405180910390fd5b600160003373ffffffffffffffffffffffffffffffffffffffff1673ffffffffffffffffffffffffffffffffffffffff1681526020019081526020016000205442111515610388576040517f08c379a00000000000000000000000000000000000000000000000000000000081526004018080602001828103825260108152602001807f596f75206861766520746f20776169740000000000000000000000000000000081525060200191505060405180910390fd5b60008060003373ffffffffffffffffffffffffffffffffffffffff1673ffffffffffffffffffffffffffffffffffffffff16815260200190815260200160002054905060008060003373ffffffffffffffffffffffffffffffffffffffff1673ffffffffffffffffffffffffffffffffffffffff168152602001908152602001600020819055503373ffffffffffffffffffffffffffffffffffffffff166108fc829081150290604051600060405180830381858888f19350505050158015610455573d6000803e3d6000fd5b5050565b6000600160003373ffffffffffffffffffffffffffffffffffffffff1673ffffffffffffffffffffffffffffffffffffffff16815260200190815260200160002054905090565b338160003411151561051a576040517f08c379a000000000000000000000000000000000000000000000000000000000815260040180806020018281038252601b8152602001807f596f75206861766520746f2073656e6420736f6d65206574686572000000000081525060200191505060405180910390fd5b42811115156105b7576040517f08c379a00000000000000000000000000000000000000000000000000000000081526004018080602001828103825260258152602001807f54686520667265657a652074696d65206d75737420626520696e20746865206681526020017f757475726500000000000000000000000000000000000000000000000000000081525060400191505060405180910390fd5b600160008373ffffffffffffffffffffffffffffffffffffffff1673ffffffffffffffffffffffffffffffffffffffff1681526020019081526020016000205481111515610693576040517f08c379a000000000000000000000000000000000000000000000000000000000815260040180806020018281038252603d8152602001807f54686520667265657a652074696d65206d75737420626520677265617465722081526020017f7468616e207468652070726576696f757320667265657a652074696d6500000081525060400191505060405180910390fd5b346000803373ffffffffffffffffffffffffffffffffffffffff1673ffffffffffffffffffffffffffffffffffffffff1681526020019081526020016000206000828254019250508190555082600160003373ffffffffffffffffffffffffffffffffffffffff1673ffffffffffffffffffffffffffffffffffffffff16815260200190815260200160002081905550505050565b60008060003373ffffffffffffffffffffffffffffffffffffffff1673ffffffffffffffffffffffffffffffffffffffff1681526020019081526020016000205490509056fea165627a7a72305820f4a6afbcfcc27605653d323a416f19802e542127112f43ea749ea679162e6fff0029",
  "source": "// SPDX-License-Identifier: MIT\r\npragma solidity >=0.4.22 <0.9.0;\r\n\r\ncontract Hodl {\r\n    mapping(address => uint256) balances;\r\n    mapping(address => uint256) freeze_time;\r\n    address owner;\r\n\r\n    constructor() public {\r\n        owner = msg.sender;\r\n    }\r\n\r\n    modifier withdraw_validation() {\r\n        require(balances[msg.sender] > 0, \"You have no balance\");\r\n        require(block.timestamp > freeze_time[msg.sender], \"You have to wait\");\r\n        _;\r\n    }\r\n\r\n    modifier deposit_validation(address _user, uint256 _freezeTime) {\r\n        require(msg.value > 0, \"You have to send some ether\");\r\n        require(\r\n            _freezeTime > block.timestamp,\r\n            \"The freeze time must be in the future\"\r\n        );\r\n        require(\r\n            _freezeTime > freeze_time[_user],\r\n            \"The freeze time must be greater than the previous freeze time\"\r\n        );\r\n        _;\r\n    }\r\n\r\n    modifier onlyOwner() {\r\n        require(msg.sender == owner, \"You are not the owner\");\r\n        _;\r\n    }\r\n\r\n    function contract_balance() public view onlyOwner returns (uint256) {\r\n        return address(this).balance;\r\n    }\r\n\r\n    function deposit(uint256 _freezeTime)\r\n        external\r\n        payable\r\n        deposit_validation(msg.sender, _freezeTime)\r\n    {\r\n        balances[msg.sender] += msg.value;\r\n        freeze_time[msg.sender] = _freezeTime;\r\n    }\r\n\r\n    function withdraw() external withdraw_validation {\r\n        uint256 amount = balances[msg.sender];\r\n        balances[msg.sender] = 0;\r\n        // msg.sender is an address payable(built-in)\r\n        (msg.sender).transfer(amount);\r\n    }\r\n\r\n    function getDepositAmt() external view returns (uint256) {\r\n        return balances[msg.sender];\r\n    }\r\n\r\n    function getHodlTime() external view returns (uint256) {\r\n        return freeze_time[msg.sender];\r\n    }\r\n}\r\n",
  "sourcePath": "E:/HODL/src/smart-contract/contracts/Hodl.sol",
  "compiler": {
    "name": "solc",
    "version": "0.5.0+commit.1d4f565a.Emscripten.clang"
  },
  "schemaVersion": "3.0.2",
  "updatedAt": "2022-12-08T14:37:37.847Z",
  "devdoc": {
    "methods": {}
  },
  "userdoc": {
    "methods": {}
  }
}